:060000000A128A110E280D
:10000800FE00030EF2000A08F3007F08F4000A124B
:100018008A15C32E0A128A111128F501F601F70173
:10002800F8018313483084005A300A128A1555267D
:100038000A128A1183010A128A113A2D83120313B4
:100048002C088039B6002C08B1003107BC00AB1F62
:100058002E282F2830283C143C080319342835282A
:1000680044283C0A031D39283A2842280030AC00AD
:100078000030AB000030AA000030A900AB174C28B4
:100088000030AC000030AB000030AA000030A900FE
:1000980030088039B1003108B6063008B1003107A0
:1000A800B700AF1F582859285A283714370803199A
:1000B8005E285F286E28370A031D632864286C2889
:1000C8000030B0000030AF000030AE000030AD00AE
:1000D800AF1776280030B0000030AF000030AE0017
:1000E8000030AD00370803197A287B2880283C089F
:1000F800031D7F28802889280030AC000030AB0021
:100108000030AA000030A900662B2908A0002F089B
:100118000A128A15EC260A128A118312031321087F
:10012800C2002008C1004108B100B201B301B40106
:100138003408BB003308BA003208B9003108B800E7
:100148004208B100B201B301B4013408C000330859
:10015800BF003208BE003108BD002A08A0002E08E2
:100168000A128A15EC260A128A118312031321082F
:10017800C2002008C1004108B100B201B301B401B6
:100188003108B807320803110318013E0319CD28B6
:10019800B907330803110318013E0319D428BA0715
:1001A800340803110318013E0319DB28BB07420872
:1001B800B100B201B301B4013108BD07320803111F
:1001C8000318013E0319E928BE0733080311031871
:1001D800013E0319F028BF07340803110318013E34
:1001E8000319F728C0072B08A0002D080A128A1542
:1001F800EC260A128A11831203132108C200200870
:10020800C1004108B100B201B301B4013108B80717
:10021800320803110318013E03191329B9073308DB
:1002280003110318013E03191A29BA0734080311E8
:100238000318013E03192129BB074208B100B20186
:10024800B301B4013108BD07320803110318013E98
:1002580003192F29BE07330803110318013E031998
:100268003629BF07340803110318013E03193D2935
:10027800C0070830B1000310B80DB90DBA0DBB0D99
:10028800B10B3F292A08A0002D080A128A15EC266E
:100298000A128A11831203132108C2002008C10020
:1002A8004108B1004208B200B301B4013108B807EF
:1002B800320803110318013E03196329B9073308EB
:1002C80003110318013E03196A29BA0734080311F8
:1002D8000318013E03197129BB072908A0002E083D
:1002E8000A128A15EC260A128A11831203132108AE
:1002F800C2002008C1004108B1004208B200B301A1
:10030800B4013108B807320803110318013E031974
:100318008E29B907330803110318013E03199529DB
:10032800BA07340803110318013E03199C29BB07B7
:100338000830B1000310B80DB90DBA0DBB0DB10BE3
:100348009E292908A0002D080A128A15EC260A12EF
:100358008A11831203132108C2002008C100410832
:10036800B1004208B200B301B4013108B80732083D
:1003780003110318013E0319C229B90733080311F1
:100388000318013E0319C929BA07340803110318D1
:10039800013E0319D029BB072A08A0002F080A121A
:1003A8008A15EC260A128A11831203132108C20047
:1003B8002008C1004108B1004208B200B301B401ED
:1003C8003108BD07320803110318013E0319ED294E
:1003D800BE07330803110318013E0319F429BF07A8
:1003E800340803110318013E0319FB29C0072B0821
:1003F800A0002E080A128A15EC260A128A11831206
:1004080003132108C2002008C1004108B1004208B6
:10041800B200B301B4013108BD0732080311031853
:10042800013E0319182ABE07330803110318013EB9
:1004380003191F2ABF07340803110318013E0319C3
:10044800262AC0072B08A0002F080A128A15EC26B6
:100458000A128A11831203132108C2002008C1005E
:100468004108B1004208B200B301B40108300310DA
:10047800B10DB20DB30DB40DFF3E031D3B2A31087B
:10048800BD07320803110318013E03194C2ABE07A1
:10049800330803110318013E0319532ABF07340810
:1004A80003110318013E03195A2AC0073808B1007E
:1004B8003908B2003A08B3003B08B40018300310FA
:1004C800B40CB30CB20CB10CFF3E031D632A310807
:1004D800BD07320803110318013E0319742ABE0729
:1004E800330803110318013E03197B2ABF07340898
:1004F80003110318013E0319822AC0070830B1000E
:100508000310B80DB90DBA0DBB0DB10B842A3C0808
:100518003707B100B201B20D3108823EC10032087E
:100528000318013EFF3EC200B62A0130B100031095
:10053800BD0DBE0DBF0DC00DB10B9B2ABB1FA52A5B
:10054800A62AA72A3D140130B1000310B80DB90D31
:10055800BA0DBB0DB10BA92AFF30C1070318C20A97
:10056800FF30C207BF1FB92ABA2A992AB701BB1F91
:10057800BE2ABF2ADB2AFF303805B100FF30390513
:10058800B200FF303A05B3007F303B05B4003408B1
:100598003304320431040319D22AD32AD62AB701E4
:1005A800B70ADB2A3D1CD92ADA2ADB2AD32A3708DC
:1005B8000319DF2AE02A112B0130BD070030031888
:1005C8000130BE07003003180130BF0700300318A0
:1005D8000130C007401CF12AF22A112B3D08B10056
:1005E8003E08B2003F08B3004008B4000130B5002F
:1005F800340DB40CB30CB20CB10CB50BFC2A340896
:10060800C0003308BF003208BE003108BD00013009
:10061800C1070318C20A0030C2074208803AFF0027
:1006280080307F02031D1A2BFF304102031C1D2B53
:100638001E2B292B7F3083120313C0008030BF008C
:100648000030BE000030BD005A2B8312031342084D
:10065800803AFF0080307F02031D342B01304102B5
:100668000318372B382B442B003083120313C00098
:100678000030BF000030BE000030BD00B6015A2B6C
:10068800831203134108BC00FF30BD05FF30BE05CF
:100698007F30BF050030C0053C1C532B542B552B15
:1006A800BF173C08B1000310310CC0003608B10078
:1006B8003108C0044008AC003F08AB003E08AA005F
:1006C8003D08A90008008312031335088039BF00CC
:1006D8003508B6003607C600B41F732B742B752B6C
:1006E800461446080319792B7A2B8A2B460A031DD0
:1006F8007E2B7F2B872B0030B5000030B4000030F4
:10070800B3000030B200B417B501922B0030B50029
:100718000030B4000030B3000030B2003108803936
:10072800B6003608BF063108B6003607C700B01F46
:100738009E2B9F2BA02B471447080319A42BA52BEE
:10074800B52B470A031DA92BAA2BB22B0030B100E9
:100758000030B0000030AF000030AE00B017B1017B
:10076800BD2B0030B1000030B0000030AF000030C9
:10077800AE00310830042F042E04031DC42BC52BF2
:10078800DE2B0030B5000030B4000030B30000307C
:10079800B2008030B4047F30B5043F08B600360894
:1007A800B5043508B1003408B0003308AF0032088A
:1007B800AE00392D4608031DE22BE32BEC2B00304D
:1007C800B1000030B0000030AF000030AE00392D6D
:1007D8004608B600B7013708B90047083602B8001E
:1007E800031CB90338087F3EC00039080318013ECE
:1007F800003EC1003508BE003408BD003308BC0007
:100808003208BB000030B5000030B4000030B3003F
:100818000030B2000030C5000030C4000030C30012
:100828000030C200C701622C470803191C2C1D2C7C
:100838003D2C0130B6000310BB0DBC0DBD0DBE0D27
:10084800B60B1F2C0130B6000310B20DB30DB40D5A
:10085800B50DB60B282CC51F322C332C342C321472
:100868000130B6000310C20DC30DC40DC50DB60B83
:10087800362C31083E02031D4B2C30083D02031D67
:100888004B2C2F083C02031D4B2C2E083B02031C4B
:100898004E2C4F2C5E2C45172E08BB022F08031C2C
:1008A8002F0FBC023008031C300FBD023108031C97
:1008B800310FBE020130B6003608C7071A304702AA
:1008C800031C672C682C182C3E083D043C043B0490
:1008D80003196F2C702C8F2C42148F2C0130B6000A
:1008E8000310B20DB30DB40DB50DB60B742CC51FA6
:1008F8007E2C7F2C802C32140130B6000310C20DE0
:10090800C30DC40DC50DB60B822CFF30C0070318EC
:10091800C10AFF30C107B41F922C932C722CC70157
:10092800C51F972C982CB42CFF304205B600FF3019
:100938004305B700FF304405B8007F304505B900CE
:1009480039083804370436040319AB2CAC2CAF2C07
:10095800C701C70AB42C321CB22CB32CB42CAC2C53
:1009680047080319B82CB92CEA2C0130B20700301B
:1009780003180130B307003003180130B407003002
:1009880003180130B507351CCA2CCB2CEA2C3208C9
:10099800B6003308B7003408B8003508B90001308C
:1009A800BA00390DB90CB80CB70CB60CBA0BD52C6B
:1009B8003908B5003808B4003708B3003608B20063
:1009C8000130C0070318C10A0030C1074108803A46
:1009D800FF0080307F02031DF32CFF304002031C10
:1009E800F62CF72C052DFF3083120313C0000030BE
:1009F800C1000030B5000030B4000030B300003052
:100A0800B200831203134108803AFF0080307F024E
:100A1800031D102D013040020318132D142D212D14
:100A280083120313C001C1010030B5000030B400C7
:100A38000030B3000030B200BF0183120313400836
:100A4800C600461C282D292D2B2DB4172F2D7F309D
:100A5800B6003608B4054608B6000310360CB500D3
:100A68003F08B6003608B504D52B08008B170B17BE
:100A7800831603130C17870188010A128A158B261F
:100A88000A128A1180300A128A155D260A128A1102
:100A9800073083120313A30001300A128A15A42613
:100AA8000A128A114130831203139F008E30831675
:100AB80003139F00831203131F0804389F0040305C
:100AC800B1000230B000F130AF00AA30AE005008DB
:100AD800A0005108A100A201A30100300A128A1146
:100AE80073260A128A11831203132308B5002208F9
:100AF800B4002108B3002008B2000A128A11672343
:100B08000A128A11831203133108CB003008CA0075
:100B18002F08C9002E08C8004230AC00C830AB000E
:100B28000030AA000030A9004B08B0004A08AF0006
:100B38004908AE004808AD000A128A1122200A129C
:100B48008A11831203132C08CF002B08CE002A0821
:100B5800CD002908CC0089300A128A155D260A12B0
:100B68008A110A3083120313AA000030AB004F0821
:100B7800A3004E08A2004D08A1004C08A0000A12CC
:100B88008A112D270A128A11831203132108AD0036
:100B98002008AC000A128A1597270A128A118312B4
:100BA80003132B08F8002A08F7000A30AA000030BF
:100BB800AB004F08A3004E08A2004D08A1004C0846
:100BC800A0000A128A112D270A128A118312031310
:100BD8002108AD002008AC000A128A11A5270A12C4
:100BE8008A11831203132B08D9002A08D8000A3067
:100BF800A0000030A1007808A3007708A2000A121C
:100C08008A1515270A128A11831203132108D7009F
:100C18002008D6000A30A0000030A1007808A30000
:100C28007708A2000A128A1551270A128A1183121C
:100C380003132108F6002008F5000A30A000003050
:100C4800A1007608A3007508A2000A128A151527C4
:100C58000A128A11831203132108D5002008D40030
:100C68000A30A0000030A1007608A3007508A20091
:100C78000A128A1551270A128A11831203132108AE
:100C8800D3002008D2005208303E0A128A15742672
:100C98000A128A11831203135408303E0A128A1565
:100CA80074260A128A112E300A128A1574260A121C
:100CB8008A11831203135608303E0A128A157426C5
:100CC8000A128A11831203135808303E0A128A1531
:100CD80074260A128A115E2D0A128A110E288312AE
:100CE8000313A800280803197A2E7B2E8F2EA31F22
:100CF8007E2E7F2E8F2E2009AA002109AB00220903
:100D0800AC002309AD00AA0A0319AB0A0319AC0AFF
:100D18000319AD0A972E2308AD002208AC0021085C
:100D2800AB002008AA002308220421042004031D84
:100D38009E2E9F2EA82E0030A3000030A200003067
:100D4800A1000030A0002C2F9630A900B82E013049
:100D5800A4002408A90701300310AD0CAC0CAB0C9F
:100D6800AA0CFF3E031DB02EFE302D05031DBD2E1F
:100D7800BE2EAB2EDA2E0130A4002408A9070130BC
:100D8800AA07003003180130AB0700300318013000
:100D9800AC07003003180130AD0701300310AD0C6B
:100DA800AC0CAB0CAA0CFF3E031DD22EFF302D0558
:100DB800031DDF2EE02EBF2EEC2E0130A9020130DC
:100DC800A4000310AA0DAB0DAC0DAD0DA40BE52EC0
:100DD800AC1BEF2EF02EF62E023029020318F52E4A
:100DE800F62EE12E2918F92EFA2E022FFF30AA0529
:100DF800FF30AB057F30AC05FF30AD050310A90C03
:100E08002908A400A501A601A70118300310A40D04
:100E1800A50DA60DA70DFF3E031D0A2F2408AA0441
:100E28002508AB042608AC042708AD0428080319D4
:100E38001E2F1F2F242FA31F222F232F242FAD1740
:100E48002D08A3002C08A2002B08A1002A08A00046
:100E58000800031083120313220D230DA90029088B
:100E6800031D372F382F412F0030A3000030A20078
:100E78000030A1000030A000A42F2008A400210801
:100E8800A5002208A6002308A7001F300310A70CFE
:100E9800A60CA50CA40CFF3E031D4A2F2408A8008D
:100EA800A217FF30A005FF30A105FF30A2050030D2
:100EB800A3059630A902A91F622F632F7D2F290849
:100EC800803A973E0318692F6A2F6B2F382F01300D
:100ED8000310A30CA20CA10CA00CFF3E031D6C2F49
:100EE8000130A4002408A907031D7B2F7C2F6B2F3A
:100EF800942F20302902031C822F832F8F2F382F05
:100F08000130A4000310A00DA10DA20DA30DA40B88
:100F1800862F0130A9022908031D932F942F842FAF
:100F280028080319982F992FA42FA009A109A2090D
:100F3800A309A00A0319A10A0319A20A0319A30AFB
:100F4800080083120313B001AD1FAB2FAC2FB32FD2
:100F5800AC09AD09AC0A0319AD0AB001B00AAB1F60
:100F6800B62FB72FBC2FAA09AB09AA0A0319AB0AD7
:100F78002A082B040319C12FC22FF12FAF01AF0A82
:100F8800D02F01300310AA0DAB0DFF3E031DC62F55
:100F98000130AE002E08AF07AB1FD32FD42FC52FBB
:100FA8002B082D02031DDA2F2A082C02031CDD2F23
:100FB800DE2FE42F2A08AC022B08031CAD03AD0278
:100FC80001300310AB0CAA0CFF3E031DE52F0130C6
:100FD800AF02031DF02FF12FD42F30080319F52F7E
:100FE800F62FFB2FAC09AD09AC0A0319AD0A2D0881
:100FF800AB002C08AA00080008308A000408840AFC
:1010080082070034533445344E3453344F34523409
:041018003A34003432
:101CAA0064008001840A0406031900340406562ECF
:101CBA0083120313A200220887000810881008154F
:101CCA00213083120313A1007530A000A00B6B2EE4
:101CDA00A10B6B2E702E83120313081108008312B6
:101CEA000313A2002208870008148810081521305F
:101CFA0083120313A1007530A000A00B822EA10B42
:101D0A00822E872E831203130811080038300A1214
:101D1A008A155D260A128A1506300A128A155D2668
:101D2A000A128A150C300A128A155D260A128A15B9
:101D3A0001300A128A155D260A128A1508008312D2
:101D4A000313A500A601BC2E2608250784000A1243
:101D5A008A1500200A128A150A128A1574260A128E
:101D6A008A15013083120313A4002408A607230846
:101D7A002602031CC12EC22EA92E080083120313A9
:101D8A000C1FC82EC92EE32E1E08F000F1017008A0
:101D9A00F100F0017008D0007108D1008316031316
:101DAA001E08831203135007F00051080318510A42
:101DBA00F1007008D0007108D1000C137408FF00FC
:101DCA0073088A00720E8300FE0E7E0E09008312CB
:101DDA000313A800A401A5012008A200A301220858
:101DEA00A6002308A700281CFB2EFC2E022F26087B
:101DFA00A4070318A50A2708A50701300310A60D92
:101E0A00A70DFF3E031D032F0310A80C2808031D6E
:101E1A000F2F102FF82E2508A1002408A000080073
:101E2A00831203132008210403191C2F1D2F4C2F82
:101E3A00A501A50A2B2F01300310A00DA10DFF3E0D
:101E4A00031D212F0130A4002408A507A11F2E2F4E
:101E5A002F2F202F21082302031D352F20082202AD
:101E6A00031C382F392F3F2F2008A2022108031CF8
:101E7A00A303A30201300310A10CA00CFF3E031D13
:101E8A00402F0130A502031D4B2F4C2F2F2F230863
:101E9A00A1002208A000080083120313A601A701CB
:101EAA002008210403195A2F5B2F922FA501A50A96
:101EBA00692F01300310A00DA10DFF3E031D5F2FF6
:101ECA000130A4002408A507A11F6C2F6D2F5E2FD7
:101EDA0001300310A60DA70DFF3E031D6E2F21082A
:101EEA002302031D7A2F20082202031C7D2F7E2F36
:101EFA00852F2008A2022108031CA303A30226148B
:101F0A0001300310A10CA00CFF3E031D862F0130E7
:101F1A00A502031D912F922F6D2F2708A1002608D5
:101F2A00A000080083120313B001AB1F9D2F9E2F40
:101F3A00A52FAA09AB09AA0A0319AB0AB001B00A6C
:101F4A00AD1FA82FA92FB22FAC09AD09AC0A0319EE
:101F5A00AD0A0130AE002E08B006B101B2012A085E
:101F6A002B040319B92FBA2FF12FAF01AF0AC82FCB
:101F7A0001300310AA0DAB0DFF3E031DBE2F013029
:101F8A00AE002E08AF07AB1FCB2FCC2FBD2F0130D1
:101F9A000310B10DB20DFF3E031DCD2F2B082D02EC
:101FAA00031DD92F2A082C02031CDC2FDD2FE42F56
:101FBA002A08AC022B08031CAD03AD023114013010
:101FCA000310AB0CAA0CFF3E031DE52F0130AF0234
:101FDA00031DF02FF12FCC2F30080319F52FF62F00
:101FEA00FB2FB109B209B10A0319B20A3208AB00D0
:061FFA003108AA000800F6
:08400000FF3FFF3FFF3FFF3FC0
:02400E00BA3FB7
:00000001FF
