:100000000A128A11F22F00308A000408840A82073B
:10001000003443344C344F3443344B343A3400349A
:0C00200044344134543445343A34003444
:10086600F200720883120313880006148610061518
:100876002130F1007630F000F00B3F2CF10B3F2CCD
:1008860000008312031306110800F2007208831297
:10089600031388000610861006152130F100763005
:1008A600F000F00B542CF10B542C000083120313B0
:1008B6000611080038300A128A1148240A128A11D1
:1008C60006300A128A1148240A128A110C300A12BA
:1008D6008A1148240A128A1101300A128A11482400
:1008E6000A128A110800F500F6018A2C76087507A7
:1008F60084000A128A1103200A128A110A128A1126
:1009060033240A128A110130F4007408F6077308BA
:100916007602031C8F2C902C792C0800F4007408A6
:10092600F5007508F039F5007508F300043003107A
:10093600F30CFF3E031D9A2C7308F500750830383A
:10094600F50075080A128A1133240A128A117408EE
:10095600F50075080F39F50075083038F50075088B
:100966000A128A1133240A128A1108008312031309
:10097600A3000A30F0000030F1002308F900FA0164
:100986007908F2007A08F3000A128A114A250A1237
:100996008A11700883120313A0000A30F000003099
:1009A600F1002308F900FA017908F2007A08F30049
:1009B6000A128A11F1240A128A117008831203138B
:1009C600A1002008F90004300310F90DFF3E031DB5
:1009D600E72C21087907A20022080800F601F31F78
:1009E600F52CF62CFD2CF209F309F20A0319F30A89
:1009F600F601F60AF11F002D012D062DF009F10969
:100A0600F00A0319F10A7008710403190B2D0C2D55
:100A16003B2DF501F50A1A2D01300310F00DF10DED
:100A2600FF3E031D102D0130F4007408F507F11F79
:100A36001D2D1E2D0F2D71087302031D242D700808
:100A46007202031C272D282D2E2D7008F202710824
:100A5600031CF303F30201300310F10CF00CFF3E0C
:100A6600031D2F2D0130F502031D3A2D3B2D1E2DA2
:100A7600760803193F2D402D452DF209F309F20A98
:100A86000319F30A7308F1007208F0000800F60172
:100A9600F11F4E2D4F2D562DF009F109F00A0319BD
:100AA600F10AF601F60AF31F592D5A2D632DF209A4
:100AB600F309F20A0319F30A0130F4007408F60682
:100AC600F701F8017008710403196A2D6B2DA22D28
:100AD600F501F50A792D01300310F00DF10DFF3EF9
:100AE600031D6F2D0130F4007408F507F11F7C2DEE
:100AF6007D2D6E2D01300310F70DF80DFF3E031D01
:100B06007E2D71087302031D8A2D70087202031C64
:100B16008D2D8E2D952D7008F2027108031CF3039E
:100B2600F302771401300310F10CF00CFF3E031DA5
:100B3600962D0130F502031DA12DA22D7D2D7608DF
:100B46000319A62DA72DAC2DF709F809F70A0319E5
:100B5600F80A7808F1007708F0000800FF308316DD
:100B66000313870031309300283083120313940057
:100B76008316031388018312031388018316031354
:100B860086018312031386010A128A115D240A1252
:100B96008A1180300A128A1148240A128A110630F4
:100BA600F30001300A128A1176240A128A11C03023
:100BB6000A128A1148240A128A110530F3000830F5
:100BC6000A128A1176240A128A110230831203133A
:100BD600A400A501A50AA601A60A0530A7000430AF
:100BE600A8001430A90003300A128A111F260A121F
:100BF6008A11083083120313AC009D30AB00053018
:100C0600AA00AA0B042EAB0B042EAC0B042E8230CA
:100C160083120313AB00DD30AA00AA0B102EAB0B18
:100C2600102EF601D0300A128A11C1260A128A1134
:100C36000A2E0A128A110028FB00831603131114C8
:100C46001118262E272E232E831203138C11D03033
:100C560093008C1D2F2E302E2C2E8C1183160313F1
:100C6600111F362E372E3D2E111511193B2E3C2EF7
:100C7600382EC02E8312031393018C1D432E442E4F
:100C8600402E8C1183160313111F4A2E4B2E512E04
:100C9600111511194F2E502E4C2EC02E7B080A12FC
:100CA6008A11B9240A128A118312031393008C1D28
:100CB6005D2E5E2E5A2E8C1124080A128A11B92432
:100CC6000A128A118312031393008C1D6B2E6C2E4D
:100CD600682E8C1125080A128A11B9240A128A1163
:100CE6008312031393008C1D792E7A2E762E8C1187
:100CF60026080A128A11B9240A128A1183120313CA
:100D060093008C1D872E882E842E8C1127080A129C
:100D16008A11B9240A128A118312031393008C1DB7
:100D2600952E962E922E8C1128080A128A11B92415
:100D36000A128A118312031393008C1DA32EA42E6C
:100D4600A02E8C1129080A128A11B9240A128A11B6
:100D56008312031393008C1DB12EB22EAE2E8C116E
:100D660093018C1DB72EB82EB42E8C118316031347
:100D760011151119BF2EC02EBC2E0800F7008316C0
:100D8600031311141118C82EC92EC52E831203136E
:100D96008C1177089300D02E8C118C1DD32ED42E57
:100DA600CF2E83160313111FD92EDA2EE02E11151E
:100DB6001119DE2EDF2EDB2EF12F76088312031398
:100DC60093008C1DE72EE82EE42E8C118316031358
:100DD600111FEE2EEF2EF52E11151119F32EF42EEE
:100DE600F02EF12F91149118F92EFA2EF62E831269
:100DF60003138C117708013E93008C1D032F042FDB
:100E0600002F8C1183160313111F0A2F0B2F112F7E
:100E1600111511190F2F102F0C2FF12F9115141CCE
:100E2600152F162F122F831203131308FD00831696
:100E3600031391121116111A212F222F1E2F91150D
:100E4600141C262F272F232F831203131308FC00AD
:100E56008316031391121116111A322F332F2F2FC7
:100E66009115141C372F382F342F831203131308B0
:100E7600B2008316031391121116111A432F442F31
:100E8600402F9115141C482F492F452F8312031309
:100E96001308B1008316031391121116111A542F59
:100EA600552F512F9115141C592F5A2F562F831237
:100EB60003131308B0008316031391121116111AA7
:100EC600652F662F622F9115141C6A2F6B2F672FC3
:100ED600831203131308AF0083160313911211161E
:100EE600111A762F772F732F9115141C7B2F7C2FB9
:100EF600782F831203131308AE008316031391127F
:100F06001116111A872F882F842F9115141C8C2FD8
:100F16008D2F892F831203131308AD008316031335
:100F260091161116111A982F992F952F111511191F
:100F36009D2F9E2F9A2F831203138C1188300A122D
:100F46008A1148240A128A118312031332080A12DC
:100F56008A1191240A128A113A300A128A1133240C
:100F66000A128A117C080A128A1191240A128A111D
:100F76003A300A128A1133240A128A117D080A129B
:100F86008A1191240A128A11C7300A128A1148243A
:100F96000A128A118312031330080A128A11912445
:100FA6000A128A112F300A128A1133240A128A1160
:100FB600831203132F080A128A1191240A128A1126
:100FC6002F300A128A1133240A128A11831203134C
:100FD6002E080A128A1191240A128A110800FC01AD
:100FE600FD0183120313AD01AE01AF01B001B101E2
:0A0FF600B20183010A128A11B12D25
:08400000FF3FFF3FFF3FFF3FC0
:02400E003A3F37
:00000001FF
