:100000000A128A11FC2F00308A000408840A820731
:10001000003445344D34423445344434443445345A
:1000200044340034533459345334543445344D3407
:040030005334003411
:100EEA00F200720883120313880006108610061592
:100EFA002130F1007630F000F00B812FF10B812FB9
:100F0A0000008312031306110800F200720883120C
:100F1A00031388000614861006152130F100763076
:100F2A00F000F00B962FF10B962F0000831203139B
:100F3A000611080038300A128A1175270A128A1116
:100F4A0006300A128A1175270A128A110C300A12FF
:100F5A008A1175270A128A1101300A128A11752715
:100F6A000A128A110800F500F601CC2F76087507D7
:100F7A0084000A128A1103200A128A110A128A119B
:100F8A008A270A128A110130F4007408F6077308D6
:100F9A007602031CD12FD22FBB2F0800831603130E
:100FAA00870188010A128A119F270A128A1183303F
:100FBA000A128A1175270A128A110830F3000130C1
:100FCA000A128A11B8270A128A11C3300A128A1120
:100FDA0075270A128A110730F3000A300A128A1199
:100FEA00B8270A128A11DC2F0A128A1100288301F3
:060FFA000A128A11D32F38
:08400000FF3FFF3FFF3FFF3FC0
:02400E00BA3FB7
:00000001FF
